:020000000C945E
:10000200DD010C9400000C9400000C9400000C9490
:1000120000000C9400000C9400000C9400000C945E
:1000220000000C9400000C9400000C9400000C944E
:1000320000000C9400000C9400000C9400000C943E
:1000420000000C9400000C9400000C9400000C942E
:1000520000001027E80364000A00010000100001FC
:10006200100001000000456E7465722050617373C8
:1000720020746F205349474E555020002020546869
:10008200656E205072657373203C233E20003D3D17
:100092003E2000456E746572205061737320746F48
:1000A200206C6F67696E0055534552204E4F5420A5
:1000B200464F554E440020204552524F5220202098
:1000C200204552524F52004C4F47454420494E2042
:1000D20053756363657366756C6C79005041535355
:1000E20020494E434F525245435400256400456E09
:1000F20074657220494420746F205349474E20553D
:10010200502000456E74657220494420746F206C43
:100112006F6720696E20004C4F47454420494E20AE
:100122004153203A2041444D494E00312D20414453
:1001320044205553455200322D20534554205449F2
:100142004D45202F20444154452000332D204C4F53
:1001520047204F5554004C4F47454420494E2041BB
:1001620053203A205553455200312D2043484543F0
:100172004B20444154452F54494D4500322D2054C3
:10018200454D50455241545552452000332D205380
:10019200544550204D4F544F5200546F20534554F4
:1001A200207072657373203C2A3E2000456E746590
:1001B200722059656172203A2000456E7465722082
:1001C2006D6F756E74203A2000456E7465722064FE
:1001D2006179203A2000456E74657220686F7572ED
:1001E200203A2000456E746572206D696E757465E3
:1001F200203A200020202020203C3C20444154452D
:10020200203E3E2020202000202020202020256487
:10021200202F202564202F2025642000202020204C
:10022200203C3C2054494D45203E3E2020202000C9
:10023200202020202020202564203A202564202010
:100242002020200054454D500054656D70203D0023
:100252002020656E7465722073746570206D6F74F2
:100262006F72202000737465707320626574776505
:10027200656E28322D342D3829007374657020255F
:10028200640080C00100020066001600600268007F
:10029200120076027E0005008802900014008D0292
:1002A20095001200A1027E000500B30290000F002B
:1002B200B802A9001100C702B8001500D802C9008F
:1002C2000F00ED02DE001100FC02B80015000D0364
:1002D200F000120022037E00050034039000140097
:1002E2003903050112004D037E0005005F039000F3
:1002F2001400640319010C0078032D011400840317
:1003020039010B0098034D011300A3035801130098
:10031200B6036B011000C9037E010E00D9038E01E2
:100322001500E703F0001200FC037E0005000E0436
:100332009000120013049C010E002504AE0105007A
:1003420033049000120038049C010F004A04BC01DF
:1003520005005904900012005E049C010D00700417
:10036200CB0105007D049000120082049C010E0066
:100372009404D8010500A20490001200A7049C0175
:100382001000B904E6010500C90490001400CE046F
:10039200F6011400E2041E020500F60446020700FC
:1003A200FB044B02150002055202150017056702F5
:1003B2000200A00584020000F894EE27ECBBF1E0F5
:1003C200FBBFEBBFE5BF8DE0A2E0BB27ED938A95B3
:1003D200E9F780E098E0A0E6ED930197E9F7E6E817
:1003E200F2E085919591009761F0A591B591059004
:1003F2001590BF01F00105900D920197E1F7FB0105
:10040200F0CFEFE5EDBFE8E0EEBFC0E6D2E00C943E
:100412005A0320FEE1C0E89420F8E8ECF0E0E4158D
:10042200F50509F07BC021FE12C021F8689422F87C
:100432000E943608A0E6B2E00E943D08A6E7B2E0BC
:100442000E944408A8E8B2E00E944B0866C022FE5F
:100452000BC0F50131965F013197E89422F80E94B2
:10046200C305689423F859C025FE33C0689424F864
:10047200CC24DD24CA14DB04F4F4F6010E945408EF
:100482000E945908A1F40E946808ADE8B2E00E94F7
:100492003D08A1EAB2E00E944408A3EBB2E00E9448
:1004A2004B080E947408C0922C05D0922D05F601CB
:1004B20031966F01DFCF24FE0BC00E947D08A8EBAE
:1004C200B2E00E948408A7ECB2E00E94F305969A7B
:1004D20024C025FC22C0689424F8E0912C05F091F8
:1004E2002D050E948B080E94590851F40E94680849
:1004F200A8EDB2E00E94F305689423F80E94740804
:1005020024FE0BC00E947D08ADEEB2E00E9484087A
:10051200ACEFB2E00E94F305969A5EC0E4E6F0E02A
:10052200E415F50519F4689423F856C06A92A82DCB
:100532000E949008EDEEF0E00E9497080E94F305F9
:10054200F30131963F0121FE13C0F5010E945408C8
:10055200EA0FFB1FFF93EF930E94A508AF91BF9193
:100562000E94B809F5010E9454080E94AF0834C0E5
:1005720022FE13C0F5010E948B08EA0FFB1FFF93B6
:10058200EF930E94A508AF91BF910E94B809F501AF
:100592000E948B080E94AF081FC0E0919205F09163
:1005A20093056091940570919505AAE0B0E080E012
:1005B20090E00E9496090E94C008F201A091920563
:1005C200B091930580919405909195050E947109CF
:1005D2000E945B090E94C00808950E94C9089C9964
:1005E20005C0E1E0F0E02F01689420F89D9902C077
:1005F2000E94CE089E9905C0E3E0F0E02F016894C6
:1006020020F80E94D408A89A04DFA9980E94D4086E
:100612009C9905C0E4E0F0E02F01689420F89D99D0
:1006220005C0E5E0F0E02F01689420F89E9905C02E
:10063200E6E0F0E02F01689420F80E94D408A99A1D
:10064200E8DEAA980E94D4089C9905C0E7E0F0E091
:100652002F01689420F89D9905C0E8E0F0E02F0191
:10066200689420F89E9905C0E9E0F0E02F016894B3
:1006720020F80E94D408AA9ACCDEAB980E94D40833
:100682009C9905C0E4E6F0E02F01689420F89D995A
:1006920004C044245524689420F89E9905C0E8ECCF
:1006A200F0E02F01689420F80E94D408AB9AB1DEE2
:1006B2000895E0E0EBB9E8E1EAB9E6E8E0BDE0E0A0
:1006C200E0BDE3E3E9B9EFE0E4BBE0ECE1BBA4E1C8
:1006D2000E94FE050E94D808ADE0B3E00E943D08EA
:1006E200A2E2B3E00E944408A4E3B3E00E944B08F4
:1006F200689421F872DF23FE03C0E89423F801C056
:10070200F9CF0E94D808A9E3B3E00E943D08ADE406
:10071200B3E00E944408AFE5B3E00E944B0868943E
:1007220025F85BDF23FE03C0E89423F801C0F9CF6C
:10073200A4EFB1E00E944D090E94C3050E94C305C7
:10074200E0912C05F0912D053097B9F40E94DD0857
:10075200A4E6B3E00E94E208A1E00E94B205A8E785
:10076200B3E00E94E208A2E00E94B205A4E8B3E06E
:100772000E944408A8E9B3E016C00E94DD08A3EA7B
:10078200B3E00E94E208A1E00E94B205A6EBB3E04A
:100792000E94E208A2E00E94B205A9ECB3E00E9426
:1007A2004408A9EDB3E00E94F3050E94C9089C9990
:1007B20005C0E1E0F0E02F01689420F89D9902C0A5
:1007C2000E94CE089E9905C0E3E0F0E02F016894F4
:1007D20020F80E94D408A89A20FC01C0E6CFE89431
:1007E20020F8A4EFB1E00E944D090E94E70829F425
:1007F200E1E0F0E0E415F50509F01AC00E94C30536
:100802000E94D808A7EEB3E00E943D08ACEFB3E027
:100812000E944408AEE0B4E00E944B08689421F8BC
:10082200DCDE23FE03C0E89423F801C0F9CF69CFD0
:100832000E94E70829F4E2E0F0E0E415F50509F08A
:1008420099C0A0D1E89421F822F80E94DD08A3E122
:10085200B4E00E94E208A1E084D1A5E2B4E00E94E3
:100862004408A3E3B4E0BED1B8DE23FE03C0E8949B
:1008720023F801C0F9CF0E94ED08E0939605F093AA
:1008820097050E94F208A8E3B4E00E94E208A1E002
:1008920068D1AAE4B4E00E944408A9E5B4E0A2D178
:1008A2009CDE23FE03C0E89423F801C0F9CF0E9426
:1008B200ED08E0939805F09399050E94F208AEE5E1
:1008C200B4E00E94E208A1E04CD1A0E7B4E00E94AB
:1008D2004408ADE7B4E086D180DE23FE03C0E8948D
:1008E20023F801C0F9CF0E94ED08E0939A05F09336
:1008F2009B050E94F208A2E8B4E00E94E208A1E08F
:1009020030D1A4E9B4E00E944408A2EAB4E06AD17A
:1009120064DE23FE03C0E89423F801C0F9CF0E94ED
:10092200ED08E0939C05F0939D050E94F208A7EA6A
:10093200B4E00E94E208A1E014D1A9EBB4E00E9465
:100942004408A9ECB4E04ED148DE23FE03C0E8948B
:1009520023F801C0F9CF0E94ED08E0939E05F093C1
:100962009F05E0E0E0939205E0939305E093940500
:10097200E09395050E94E70829F4E3E0F0E0E4152E
:10098200F50509F002C0FED0BCCE0E94FC0829F495
:10099200E1E0F0E0E415F50509F04DC00E943608EB
:1009A200AEECB4E00E94E208A1E00E949008EAE006
:1009B200F2E0FA93EA93E0919605F09197050E948E
:1009C2000209E0919805F09199050E940209E091CF
:1009D2009A05F0919B050E9402098CE00E94E907AA
:1009E2006096AEE2B5E00E94E208A2E0BAD0A2EEC2
:1009F200B4E00E944408EEE2F5E0FA93EA93E2E3FF
:100A0200F2E0FA93EA93E0919C05F0919D050E9431
:100A12000209E0919E05F0919F050E94020988E07B
:100A22000E94E9072C960E940709A8E8B3E10E94F8
:100A32004D09E89420F80E94FC0829F4E2E0F0E075
:100A4200E415F50509F018C0A6EFB4E00E943806D7
:100A52000E943608ABEFB4E0C5D0E5E0EA93A0E02F
:100A62000E949008AFE0B0E00E9446060E9407098B
:100A7200A0EDB7E00E944D090E94FC0829F4E3E0D2
:100A8200F0E0E415F50509F048C00E943608A2E03E
:100A9200B5E00E94E208A1E064D0A7E1B5E0A2D0EF
:100AA2000E94C9089D9902C00E94CE080E94D408E3
:100AB200A89AA9980E94D4089C9905C0E4E0F0E0A5
:100AC2002F01689420F80E94D408A99AAA980E943B
:100AD200D4089D9905C0E8E0F0E02F01689420F861
:100AE2000E94D408AA9A20FE03C0E89420F801C00C
:100AF200D7CFEEE2F5E0FA93EA93ECE7F2E00E9458
:100B020097080E943806E3E0EA93A3E02AD00E9405
:100B12000709A8E8B3E10E944D0910CEFFCFAA93BE
:100B2200EBB3EF70AE2FE881E07FEA2BEBBB8DE0F9
:100B32008A95F1F7DA9A8DE08A95F1F7DA988DE0E5
:100B42008A95F1F70C943606AA93A881E8DFE8812A
:100B5200E295E883A881E3DF85E88A95F1F70C94B2
:100B62003606AA93E881F0E0E056FA4FE081A981C7
:100B7200AE0FEADFE981E093A405E881E093A505E1
:100B820022960895A2E00E940B09ACE0DDDFA1E00D
:100B92000E940B09E0E0E093A505E093A405089507
:100BA200AA93A881AA3031F0E091A605A091A405EC
:100BB200AE1768F0E0E0EA93A091A505AF5FA093BD
:100BC200A505CFDFA881AA3011F40C943606E09176
:100BD200A405EF5FE093A405D89AA881B5DFD89861
:100BE2000C943606BA93AA931A930E94110919F02B
:100BF200A12FD6DFFACF0C944306AA93EAB3E06F93
:100C0200EABBD29AD09AD19ADA98D898D998E88140
:100C1200E093A605E058E093A205E881E054E09352
:100C2200A305A4E1B0E00E944D090E9419090E94A7
:100C320019090E941909A0E272DF88EC90E001977D
:100C4200F1F7A8E281DFA4E07FDFA5E87DDFA6E07F
:100C52007BDF98DF0C9436065F9BFECFECB10895E4
:100C6200AA935D9BFECFE881ECB921960895BA93D1
:100C7200AA931A930E94110919F0A12FF1DFFACF5A
:100C8200AAE0EEDF188123960895BA93AA930E94F0
:100C9200CB090E811F8128853985002E012AD9F0C2
:100CA200DBDF5E2F583051F4AE81BF810A171B077C
:100CB20020F4215030400F5F1F4FF2CF5A3059F0CD
:100CC2003F932F932F5F3F4FE52FAF91BF91EC934F
:100CD20001501040E2CFD901E0E0EC93E885F985BC
:100CE2000E94D2092A960895BA93AA931A930A9354
:100CF200AA81BB8112960E94AE09309759F1AA814E
:100D0200BB8114960E94AE098F01309761F00230C8
:100D1200E0E01E0798F0F80131978F01AA81BB81AC
:100D22001496ED93FC93AA81BB811296ED91FD91ED
:100D32003196FE93EE933197AC81A083AA81BB8159
:100D42000E94AE09FF232AF0ED91FD913196FE93A8
:100D5200EE9306C0AA81BB81EFEFFFEFED93FC9308
:100D62001981088125960895BA93AA9326970E941D
:100D7200CB0910E0AC85BD85E0E0F0E0ED93FC939B
:100D8200EA89FB893196EA8BFB8B3197E4912E2F0E
:100D9200E03009F415C1E12FE03039F4253211F4C5
:100DA20011E002C00E9421090AC1E130A9F42532F2
:100DB20019F40E94210902C112E040E000E02D3244
:100DC20011F401E0FCC02B3211F44BE2F8C02032E6
:100DD20011F440E2F4C002C0E23039F450E013E012
:100DE200203311F40068EBC003C0E33009F0E7C020
:100DF200203310F02A3308F007C0AAE05A9F502D82
:100E0200E22FE0535E0FDBC0E22FE33649F40E948B
:100E12002809E889F989A481AA930E942E09CEC0E3
:100E2200E33741F40E9428090E9434090E941D08F8
:100E32001E2F0AC0E03761F40E9428090E9434097B
:100E42000E9429081E2F086002600F7730E034C02C
:100E5200E43611F0E93611F4046002C0E53731F4EA
:100E6200E4E5F0E0EE83FF8315E00CC0E83511F411
:100E7200086003C0E83709F0A1C0EEE5F0E0EE83B8
:100E8200FF8314E002FF14C00E9428090E943E0959
:100E9200AB85AA233AF4EA85FB850E946009EA87BA
:100EA200FB874DE2403011F01F5F01C00B7F04C091
:100EB2000E9428090E943E0900FD11C0151778F40E
:100EC20007FF08C002FF04C00B7F242F115001C08E
:100ED20020E301C020E20E9421095150EFCF312FBF
:100EE20001FF17C03030A1F003FF06C0EE81FF8181
:100EF2002591EE83FF8305C0AE81BF812D91AE8324
:100F0200BF830E942109503009F051503150EACF7D
:100F12004BC020E3EE81FF810E94BD09E887F9877B
:100F2200EE81FF813296EE83FF83E885F985AA85FB
:100F3200BB85AE17BF0750F02F5FA885B985EA853C
:100F4200FB85EA1BFB0BEA87FB87EFCF2A3328F0EE
:100F520003FF02C0295F01C0295D04FD1AC02133CD
:100F620020F4A885B985119709F409C0531710F028
:100F720000FF01C013C020E207FF0BC020E30061A5
:100F820002FF07C00B7F4A930E942E09503009F0DE
:100F920051500E942109503009F051503150A8851A
:100FA200B985129708F0B5CF00FF08C0503031F074
:100FB2005150E0E2EA930E942E09F8CF10E0E0CE11
:100FC200AC85BD850E94AE090E94D209649608953F
:100FD200FF92F82E26970E94CD090E94460930976B
:100FE20019F4EFEFFFEF23C0DE0116960E945709B6
:100FF2008D010E944609EE83FF83E0E0E887E987DE
:10100200DE011A960E9457090E94AE09FA93EA93EA
:101012001A930A93E5E7F6E0FA93EA93DE011A9649
:10102200A3DE9F01AE81BF81E0E0EC93F9010E9453
:10103200D4092A96FF900895BA93AA93A991B991D7
:10104200EE27FF276D91662311F03196FBCF0895AD
:10105200BA93AA93AA27BB27E991F9910590002098
:1010620011F01196FBCFFD0108950E94C305E0E047
:10107200EA93A0E00C94B2050E94F305E1E0EA9342
:10108200A1E00C94B2050E94F305E0E0EA93A3E02C
:101092000C94B2050E94F305E4E0F0E03F01E3E0C6
:1010A200F0E04F010895A2E4B5E00E946C090895B2
:1010B200AE0FBF1F0E94B209A0919205B091930595
:1010C20080919405909195050E94C6090895E8942F
:1010D20025F8E0E0E0939205E0939305E093940510
:1010E200E0939505C2CFE89424F8979AA4EFB1E073
:1010F2000E944D09979808950E94C305E3E0EA9380
:10110200A0E00C94B2050E94F305E1E0EA93A2E0AC
:101112000C94B205AAE6B5E00E946C0908950E94FB
:10112200B205EEE2F5E0FA93EA930895FA93EA93B0
:10113200F2010E9471090E94C10984E00E94E9073C
:101142002896AEE2B5E00895DF010E94B209AAE056
:10115200B0E080E090E00E9496090895EA0FFB1F3C
:101162000F01DF010E94B209DF01CB01F2010E94EF
:1011720071090E945B09D0010E94B8090895E093A9
:101182009205F093930560939405709395050895E5
:10119200A898A2E3B0E00C944D09E2E0F0E02F0140
:1011A200689420F80895A2E3B0E00C944D09E1E0C0
:1011B200EA93A0E00C94B205E0E0EA93A0E00C947C
:1011C200B2050E94F305E0E0EA930895A0912C0590
:1011D200B0912D0510970895E0919205F091930535
:1011E2000895E0E0E0939205E0939305E09394057F
:1011F200E09395053ACFA0912C05B0912D0511975A
:1012020008950E9471090E94C1090895AEE2B5E0F5
:101212000C94F3050E94A505A3E0B0E00C944D09DF
:10122200A981BA81ED91A983BA831E2FE030089576
:10123200A0E30E94900588EC90E00197F1F70895F1
:101242002A93AD85BE85EF85F88909950895E889C9
:10125200F9893497E88BF98B0895AD85BE85EF85C2
:10126200F88909950895A889B98914960E94AE094A
:10127200EE83FF83AE81BF810895A889B989149650
:101282000E94AE09EA87FB870895DE011C960E9440
:1012920057090E94AE090895109639F080ED97E043
:1012A2000197F1F7A8951197C9F708950024AF0D9A
:1012B200B01D0895EA0FFB1F681F791F0895F1956D
:1012C200E195F0400895F09560957095E195FF4F96
:1012D2006F4F7F4F0895EE0FFF1FEE0FFF1F089510
:1012E2006F2F660F660B762F08957A9F702D6B9F76
:1012F200700DF89F700DE99F700D6A9F602D710D42
:10130200FB9F600D711DE89F600D711D8827FA9F7C
:10131200F02D610D781FEB9FF00D611D781FEA9F84
:10132200E02DF10D681F781F089504D0DEDF0EF462
:10133200CADF0895E89477FF02C0C5DF689497FF7B
:101342000BC00024A095B095809590951196801DB4
:10135200901D00F8039400FA0895ED91FC91119705
:101362000895ED91FD916D917C9113970895ED9300
:10137200FD936D937C9308950590F491E02D08956B
:101382007A936A93FA93EA930895EA17FB07680738
:10139200790708955A934A933A932A931A930A9390
:1013A20008955D814C813B812A81198108810895CC
:00000001FF
