:060000000C944B000C946F
:1000060000000C9400000C9400000C9400000C946A
:1000160000000C9400000C9400000C9400000C945A
:1000260000000C9400000C9400000C9400000C944A
:1000360000000C9400000C9400000C9400000C943A
:1000460000000C9400000C9400000C940000546511
:100056006D70203D2025342E3266202746005465DB
:100066006D70203D2025332E30662027430080C04A
:100076002D4E414E000001002D4E414E00494E4688
:100086000000020080027400010084027C0000006F
:10009600F894EE27ECBBF1E0FBBFEBBFE5BF8DE0CC
:1000A600A2E0BB27ED938A95E9F780E098E0A0E609
:1000B600ED930197E9F7E8E8F0E0859195910097CF
:1000C60061F0A591B59105901590BF01F0010590DD
:1000D6000D920197E1F7FB01F0CFEFE5EDBFE8E008
:1000E600EEBFC0E6D2E00C94DE00E0E4E7B9E7E05C
:1000F600E6B9E0E8E6B9E7B1E7B9369A349BFECF50
:10010600349AE4B1F5B1662777270E949907A0E0F3
:10011600B0E080E490E40E942308DF01CB01E0E038
:10012600F0EC69E174E40E947108E0936802F093D0
:10013600690260936A0270936B02A0916802B091A3
:10014600690280916A0290916B02EAE0F7ED63E240
:100156007CE30E947108E0936002F0936102609371
:10016600620270936302A0916002B0916102809175
:10017600620290916302E0E0F0E060E87FE30E94B3
:1001860071080E9462072F010E941C06A6E6B6E6C9
:1001960086EE9FE30E942308A0E0B0E080E092E4B0
:1001A6000E94D307E0936402F093650260936602AF
:1001B600709367020895E0E0E7B9E3E8E6B9E0E0A6
:1001C600E0BFA4E1A4D091DF989B11C0ECE6F2E079
:1001D600FA93EA93E4E5F0E0FA93EA93E091640295
:1001E600F0916502609166027091670210C0ECE6BC
:1001F600F2E0FA93EA93E4E6F0E0FA93EA93E09108
:100206006002F091610260916202709163020E9445
:100216005A0984E00E94DF042896ACE6B2E066D074
:10022600A4EFB1E00E94230740D0CDCFFFCFAA9321
:10023600E881E07111F0C39A01C0C398E881E072C9
:1002460011F0C49A01C0C498E881E07411F0C59A0F
:1002560001C0C598E881E07811F0C69A01C0C69839
:100266008DE08A95F1F7C29A8DE08A95F1F7C298EA
:100276008DE08A95F1F778C0AA93A881D8DFE88146
:10028600E295E883A881D3DF85E88A95F1F76CC00B
:10029600AA93E881F0E0E058FD4FE081A981AE0F16
:1002A600EBDF7980688022960895A2E00E942106FD
:1002B600ACE0E2DFA1E00E942106E0E06E2E7E2E99
:1002C6000895AA93A881AA3011F0791448F0E0E0C5
:1002D600EA936394A62DDCDFA881AA3009F444C012
:1002E6007394C09AA881C8DFC0983EC0BA93AA93F7
:1002F6001A93A981BA81ED91A983BA831E2FE030A2
:1003060019F0A12FDEDFF5CF188123960895AA9361
:10031600BB9ABC9ABD9ABE9ABA9AB89AB99AC2982A
:10032600C098C1989880E881E058E0938202E881FD
:10033600E054E0938302A4E1B0E00E9423070E9408
:1003460027060E9427060E942706A0E270DF88EC97
:1003560090E00197F1F7A8E28FDFA4E08DDFA5E832
:100366008BDFA6E089DFA1DF21960895BA93AA93D1
:100376001A930A93AA81BB8112960E94410930976B
:1003860029F1AA81BB8114960E9441098F013097F9
:1003960061F00230E0E01E0780F0F80131978F012E
:1003A600AA81BB811496ED93FC93AA81BB81129618
:1003B6000E942F063197AC81A083AA81BB810E943F
:1003C6004109FF2312F00E942F0606C0AA81BB81B5
:1003D600EFEFFFEFED93FC931981088125960895C1
:1003E6000E943506E0E8EA83EFE3EB830E94770993
:1003F600EE85FF85EF3FAFEFFA0749F4E885F9850B
:10040600FA93EA93A6E7B0E00E941305B7C0EF3F60
:10041600AFE7FA0749F4E885F985FA93EA93A7E77F
:10042600B0E00E941305AAC0AB85A73010F0E6E045
:10043600EB871B85E12F1150E03019F00E943C0636
:10044600F9CFEC85FD856E857F850E94710921F4C3
:1004560030E00E943C062DC03B850E944B0609F009
:1004660008F40BC00E943C060E944B0628F00E942E
:1004760056060E945B06F8CF0DC00E944B0640F45C
:100486000E9456060E9467060E946E063150F5CFFE
:100496000E943C06EC85FD856E857F850E9473066D
:1004A6000E946E060E944B0620F00E9456060E948D
:1004B6005B0610E0EB85E117A8F1AC81BD818E816A
:1004C6009F810E947A060E947306DF01CB010E947B
:1004D6006A05EC83FD836E837F830E9456060E9425
:1004E60071080E9460070E2F0E9481060E948806EE
:1004F600FF27662777270E949907AC81BD818E81E9
:100506009F810E9423080E9456060E948D060E9423
:100516006E06E12F1F5FE03069F60E948106EEE26B
:10052600EC93C8CF0E9492063197AA85A0833030FB
:100536002CF43195A885B985EDE203C0A885B98567
:10054600EBE2EC930E9492060E9492063197BF015D
:10055600A32FEAE00E94FB08E05DDB01EC930E941A
:1005660092063197BF01A32FEAE00E942509E05DBC
:10057600DB01EC93A885B985E0E0EC930E947E0947
:1005860060960895BA93AA93EF9761970E947509AA
:1005960010E0FE01E85AFF4F0190F081E02DE88758
:1005A600F987FE01EA5AFF4F0190F081E02DEE83B4
:1005B600FF83AE81BF81E0E0F0E0ED93FC93DE01C6
:1005C600A45ABF4F0E942F063197E4912E2FE03098
:1005D60009F4E9C1E12FE03039F4253211F411E0D4
:1005E60002C00E949806DEC1E130C1F4253219F43A
:1005F6000E949806D6C112E0E0E0ED8B00E02D32B5
:1006060011F401E0CFC12B3219F4EBE2ED8BCAC134
:10061600203219F4E0E2ED8BC5C102C0E23039F4B4
:1006260050E013E0203311F40068BCC102C0E3308F
:1006360091F4203310F02A3308F007C0AAE05A9F3D
:10064600502DE22FE0535E0FADC140E02E3211F483
:1006560014E0A8C10FC0E43099F4203310F02A3317
:1006660008F008C00062AAE04A9F402DE22FE0533E
:100676004E0F98C12C3619F4026015E093C103C0E1
:10068600E53009F08FC1E22FE33659F40E949F0648
:100696000E94A6060E949F06A481AA930E94AD0608
:1006A60080C1E53411F0E53609F403C0E63609F0F9
:1006B60048C0FE017696EE87FF870E94B3060E9429
:1006C60045090E94BA060E94BF06AD85AA2332F0EC
:1006D600AD89AB3259F0A03281F017C00E94C10635
:1006E6000E942D070E94BA06EDE2ED8B07FF05C0BA
:1006F600ED89EA930E94AD0608C0EE85FF85319626
:10070600EE87FF873197AD89A08305FF46E0263641
:1007160051F40E94C1060E945A094A93AB89BC89CA
:100726000E94810509C00E94C1060E945A094A9387
:100736002A93AC89BD8954DEFE0176960E94C606D0
:100746001EC0E33739F40E94BF060E94CE060E94FF
:10075600C6060EC0E037C1F40E94BF060E94CE0650
:10076600EE87FF87AE85BF850E942C051E2F086089
:100776000F77403011F0411708F001C0142F40E008
:10078600E0E0EC8B30E06DC0E43611F0E93611F4B0
:10079600046002C0E537A1F4EAE0EC8B01FF08C073
:1007A600E0E0FAEC6AE97BE30E94D3061AE022C095
:1007B600E0E1F7E260E070E00E94D30615E01AC0BF
:1007C600E83511F4086003C0E83709F0EAC0E0E153
:1007D600EC8B01FF08C0E0E0F0E060E070E10E9411
:1007E600D30618E007C0E0E0F0E160E070E00E94A8
:1007F600D30614E0403011F00F7701C041E001FF4D
:1008060008C00E94BF060E94B30614960E944509BE
:100816000FC002FF07C00E94BF060E94CE060E94BC
:10082600E80806C00E94BF060E94CE066627772704
:10083600EA87FB876C877D8702FF12C0AD85AA23F6
:1008460042F40E94C1060E94DA080E94BA06EDE24E
:10085600ED8BED89E03019F01F5F4F5F01C00B7F14
:10086600342F00FD14C0151710F4351708F00FC00B
:1008760007FF08C002FF04C00B7F2D89115001C07D
:1008860020E301C020E20E9498065150ECCF1417D5
:1008960090F4006102FF06C00E94D80609F051508C
:1008A60011504150E0E3EA930E94AD06503009F042
:1008B60051504150ECCF312FEC89E030B9F4303053
:1008C600A1F003FF06C0EE85FF852591EE87FF8721
:1008D60005C0AE85BF852D91AE87BF870E9498065D
:1008E600503009F051503150EACF51C00E94EA060B
:1008F6000E9400092E2F2A3030F003FF02C0295C27
:1009060001C0295A01C0205D04FD21C0213360F4D5
:10091600A889B9898A899B89A130E0E0BE07E0E011
:100926008E07E0E09E0709F40BC0431740F4531707
:1009360010F000FF01C010C020E207FF08C020E34E
:10094600006102FF04C00E94D80609F051500E94BF
:100956009806503009F0515031500E94EA060E9424
:1009660031090E94BA06EC89A889B9898A899B89C6
:10097600FF27662777270E9400090E94D306E88989
:10098600F9896A897B890E94710909F0AFCF00FF56
:1009960008C0503031F05150E0E2EA930E94AD06B3
:1009A600F8CF10E00CCEAE81BF810E9441090E94B3
:1009B6007C09EF966F960895FF92F82E26970E946F
:1009C60077090E94F306309719F4EFEFFFEF23C083
:1009D600DE0116960E94D6088D010E94F306EE836C
:1009E600FF83E0E0E887E987DE011A960E94D608D1
:1009F6000E944109FA93EA931A930A93E9EBF1E00C
:100A0600FA93EA93DE011A96BDDD9F01AE81BF819E
:100A1600E0E0EC93F9010E947E092A96FF90089582
:100A2600BA93AA93E991F991A991B991CD0105904B
:100A36000D920020E1F7FC010895BA93AA93A991BB
:100A4600B991EE27FF276D91662311F03196FBCF02
:100A56000895BA93AA93AA27BB27E991F99105901D
:100A6600002011F01196FBCFFD0108950E945F0949
:100A76007B816A81F981E88177FB770F67FD716079
:100A8600972F9E5781F078F0983190F4AA27BB27CC
:100A9600882708948795B795A7959A95D1F7EA235D
:100AA600FB23682305C0E8947727EE27FF276627F0
:100AB6006F77769508F4606877F9A991B99189916D
:100AC6009991EA17FB076807790797FB08950E9433
:100AD6005F090E9450090E9439050E94550919F4C0
:100AE6000E944B0909C0E6F70E944B09A0E0B0E05E
:100AF60080E89FE30E94CC0724960895B3D0E0E0F7
:100B0600EA83EFE3EB831A930A93EB85FC85EF3FC9
:100B1600AFEFFA0731F46BD1AEE7B0E00E941305F0
:100B260084C0EF3FAFE7FA0731F461D1AFE7B0E039
:100B36000E9413057AC0AC85AA2352F4E985FA858A
:100B46006B857C850E942D0757D15BD1EDE2EC9336
:100B5600A885A73010F0E6E0E8871885E12F115048
:100B6600E03021F055D1C3D058D1F8CF5BD10E94E7
:100B7600D30742D110E0E0E0F0E060E87FE34DD13A
:100B860051D10E94B60868F043D19ED046D11F5F6E
:100B9600173230F02CD1A3E8B0E00E94130545C00F
:100BA600EFCF103021F42DD1E0E3EC931DC0E12FFF
:100BB6001150E030C9F02CD19AD092D0DF01CB0190
:100BC6000E946A052AD12ED10E9471080E946007F0
:100BD6000E2F17D19AD0F0E01BD12BD00E942308FC
:100BE6002AD198D009D1E3CFE885E030D1F009D1F8
:100BF600EEE2EC93E885E150E887EF5F91F01BD1D8
:100C060063D0FAD0E985FA856B857C850E946007FA
:100C16000E2FF7D07AD0F0E00ED10BD07BD0ECD0EF
:100C2600E9CFAE81BF81E0E0EC93198108812D9672
:100C360008950E94E8080E94990708950E943F01BE
:100C4600A3E0B0E00C942307A0E30E941A0188EC0D
:100C560090E00197F1F70895ED91FD913196FE939D
:100C6600EE930895BA93AA932497E0E0E883E98384
:100C76000895AC81BD818E819F81E0E0F0E060E265
:100C860071E40E942308EC83FD836E837F830895BD
:100C9600EC81FD816E817F81AC85BD858E859F85CA
:100CA6000E94B6080895AC85BD858E859F850895FA
:100CB600EDECFCEC6CEC7DE30E942308EC87FD87F1
:100CC6006E877F873F5F0895E0E0F0E060E271E4C1
:100CD6000E9423080895EC87FD876E877F87089515
:100CE600A0E0B0E080E09FE30E94D3070895EDEC1A
:100CF600FCEC6CEC7DE30E9423080895A885B98579
:100D06001196A887B98711970895E02FE05DEC93B7
:100D1600E02F08950E9464090E94CC070895E88593
:100D2600F9853196E887F98708952A93AF81B885C2
:100D3600E985FA8509950895FE01E65AFF4F019067
:100D4600F081E02D08953497DE01A65ABF4FED934A
:100D5600FC930895AF81B885E985FA8509950895CC
:100D6600DE01A65ABF4F0D90BC91A02D0895EA87CB
:100D7600FB876C877D870895DFDFE5CFEA85FB85F6
:100D86006C857D850895EE87FF87AE85BF850E94B9
:100D960020051E2F0895E4DF14960E944109089548
:100DA600E88BF98B6A8B7B8B08950B7FED89EA9331
:100DB600DE01A95ABF4F0D90BC91A02DFE01E75A46
:100DC600FF4F0190F081E02D099550300895E88994
:100DD600F9896A897B89AA85BB858C859D85089555
:100DE600DE011C960E94D6080E9441090895EE81F4
:100DF600FF81FA93EA930895E987FA876B877C87E0
:100E06000895AE81BF811196AE83BF831197089571
:100E1600AA81BB818C819D810895EA83FB836C83C3
:100E26007D830895EA81FB816C817D81A985BA85E0
:100E36008B859C850895A985BA858B859C850895A3
:100E4600109639F080ED97E00197F1F7A895119784
:100E5600C9F7089530976040704009F070580895BA
:100E6600552342F4503811F4E0FF04C03196691F4F
:100E7600791F6BF050E8572711F45F93CFC05F3F9F
:100E860031F0660F000C57956795752F08955F939F
:100E960000200AF0CFC0C8C050E8192E1522880FCE
:100EA600991F9527550F879550E8072E0522660F3F
:100EB600771F7527550F67950895689401C0E894C4
:100EC6005F93F2DF703818F07F3F08F4A7C056E151
:100ED600571BAAF4519558300EF4593030F0EFEF05
:100EE600FFEF6FEF7FE777F91AC077275523B9F041
:100EF600EE0FFF1F661F771F5A95D1F710C0772791
:100F0600583028F0EF2FF62F672F5850F9CF55237A
:100F160031F076956795F795E7955A95D1F70020C4
:100F26000AF445D15F910895689401C0E89430971A
:100F360060407040B1F0002426F0772312F400944C
:100F460036D1172E7EE1112032F07A95EE0FFF1F73
:100F5600661F111CF9CFEF2FF62F612D5F938ADFE5
:100F66005F9108954F93AF01FD01DA01AB01BC011A
:100F7600CA01402D012C142E4F910895EA0FFB1F34
:100F8600681F0895E095F0956095EF5FFF4F6F4FEE
:100F960008955F9381DF903871F150E8152604C0FB
:100FA6005F937ADF903839F1703821F1572F591B4A
:100FB6002BF112F4D7DFFACF583118F0AA27BB2746
:100FC6008827583028F0AB2FB82F88275850F9CFEC
:100FD600552329F08695B795A7955A95D9F7502D9B
:100FE600512572F0CBDF38F46795F795E795739541
:100FF60013F420C0B7DF3EDF5F910895D8F7FBCF2B
:10100600EA1BFB0B680B51F010F40094BBDF662360
:1010160092F3EE0FFF1F661F7A95CBF7EE27FF2799
:10102600662777275F910895EFEFFFEF6FE77FEF72
:101036005F910895EFEFFFEF6FE77FE75F91089508
:101046005F932ADF703851F3903841F301240894F6
:10105600791F23F41CF300203AF3ECCF0F921F9371
:101066002F933F934F93112722279927689FA0011B
:101076008F9F302D410D591F6B9F300D411D591FFC
:101086008E9F27D0BF9F25D06A9F23D0BE9F1DD09D
:10109600AF9F1BD0AE9F110D291F391F491F591F26
:1010A600E32FF42F652F522F4F913F912F911F91D0
:1010B6000F9066232AF0550FEE1FFF1F661F02C012
:1010C60073954BF2CDDE5F910895100D211D391FEA
:1010D60002C0200D311D491F591F08955F93DCDEA4
:1010E600703821F411200AF49FCFA4CF903809F468
:1010F60095CF01240894970B1BF4D4F30020F3CF6B
:10110600792F1F932F933F934F9311241127222753
:1011160033274427552790E2AE17BF0786074107B6
:1011260030F0AE1BBF0B860B410B089401C08894B0
:10113600551F221F331F111CAA1FBB1F881F441FC8
:101146009A9551F7F901612D4F913F912F911F917A
:10115600662332F0550FEE1FFF1F661F7A9543F286
:101166007FDE5F91089599239AF0772342F09717CF
:1011760048F029F4AE17BF07860720F031F098949F
:1011860088940895989408940895189488940895D6
:101196007723C2F7971798F3A9F7EA17FB076807AB
:1011A60088F399F3ECCF0024AF0DB01D0895F095A8
:1011B60060957095E195FF4F6F4F7F4F0895FE2F15
:1011C600FF0FFF0B6F2F7F2F08956F2F660F660B94
:1011D600762F0895002498E0AA0F001C0E1A10F42A
:1011E6000E0E01C0A1609A95B9F7EA2FA02D0895B9
:1011F60039D0F0DF0EF4E19508953F934F935F9356
:10120600002411244427552730E2AA0FBB1F881F4C
:10121600991F001C111C441F551F0E1A1F0A460B4E
:10122600570B28F40E0E1F1E461F571F01C0A16044
:101236003A9559F7FD01BC01D001CA015F914F9162
:101246003F910895E894A7FF02C0A1956894E7FD31
:10125600E195C0DFEA2F0EF4E1950895CEDFFD019A
:10126600BC010895E894E7FF02C0E1956894A7FFE2
:1012760004C0A19500F8039400FA0895ED91FC913D
:1012860011970895ED91FD916D917C9113970895B5
:10129600E881F9816A817B810895A881B9818A8173
:1012A6009B810895E883F9836A837B8308957A9303
:1012B6006A93FA93EA9308959A938A93BA93AA93B0
:1012C6000895182E862F612D192E972F712D1B2EFE
:1012D600BF2FF12D1A2EAE2FE12D089530976040C5
:1012E600704008955A934A933A932A931A930A930D
:1012F60008955D814C813B812A8119810881089579
:00000001FF
