:020000000C945E
:1000020033000C9400000C9400000C9400000C943B
:1000120000000C9400000C9400000C9400000C945E
:1000220000000C9400000C9400000C9400000C944E
:1000320000000C9400000C9400000C9400000C943E
:1000420000000C9400000C9400000C9400000C942E
:10005200000000000100010002005400020006003E
:1000620056000000F894EE27ECBBF1E0FBBFEBBFBB
:10007200E5BF8DE0A2E0BB27ED938A95E9F780E02A
:1000820098E0A0E6ED930197E9F7E8E5F0E08591C5
:100092009591009761F0A591B59105901590BF01DA
:1000A200F00105900D920197E1F7FB01F0CFEFE52A
:1000B200EDBFE8E0EEBFC0E6D2E00C946000EFEFE7
:1000C200E7BBD098C89B05C0A1E0B0E00E949500B4
:1000D200F9CF44245524E4EFF1E04E165F0644F4D0
:1000E200A1E0B0E00E949500F20131962F01F3CF1A
:1000F20068BA20FC03C0660C771C06C0D301E2E09C
:10010200F0E00E94B6003F01E0E8F0E0E615F705F6
:1001120011F4689420F8E1E0F0E0E615F70511F437
:10012200E89420F8D6CFFFCF109639F08AEF90E00E
:100132000197F1F7A8951197C9F70895F195E195FF
:10014200F04008950024112490E1AA0FBB1F001C67
:10015200111C0E1A1F0A18F40E0E1F1E01C0A160F8
:100162009A9599F7FD01D001089504D0EBDF0EF4C2
:10017200E5DF0895E894F7FF02C0E0DF6894B7FF77
:1001820006C0A095B095119600F8039400FA089560
:00000001FF
