:0A0000000C942A000C9400000C94EC
:10000A0000000C9400000C9400000C9400000C9466
:10001A0000000C9400000C9400000C9400000C9456
:10002A0000000C9400000C9400000C9400000C9446
:10003A0000000C9400000C9400000C9400000C9436
:10004A0000000C9400000C940000F894EE27ECBB1E
:10005A00F1E0F5BFE5BF8DE0A2E0BB27ED938A95FD
:10006A00E9F780E098E0A0E6ED930197E9F7EFE57C
:10007A00EDBFE8E0EEBFC0E6D2E00C944400D09AAF
:10008A0044245524E4EFF1E04E165F0644F4A1E05F
:10009A00B0E00E945B00F20131962F01F3CFD89BAA
:1000AA0002C0D89801C0D89AEBCFFFCF109639F08A
:1000BA008AEF90E00197F1F7A8951197C9F708958B
:00000001FF
