:100000000C9496000C9400000C9400000C940000DA
:100010000C9400000C9400000C9400000C94000060
:100020000C9400000C9400000C9400000C94000050
:100030000C9400000C9400000C9400000C94000040
:100040000C9400000C9400000C9400000C94000030
:100050000C9400000000303130313130303030301D
:100060003031303030313031313130303031313188
:100070003031303130313030303130313131303079
:100080003130303130313030313131303130303168
:100090003030313031313031303130303131313058
:1000A0003031303131313130313031313031303146
:1000B0003131303031313030313031303131303038
:1000C0003030303131313030313130303031313029
:1000D000303031303030313031313030313130301A
:1000E0003131313031313031303031303131313105
:1000F00030303030303131303030313130303030FC
:1001000031313031303130303131313031313030E6
:100110003030313031313130313130303131020035
:1001200004005400C800600156000000F894EE2757
:10013000ECBBF1E0FBBFEBBFE5BF8DE0A2E0BB276E
:10014000ED938A95E9F780E094E0A0E6ED930197BE
:10015000E9F7EEE1F1E085919591009761F0A591C5
:10016000B59105901590BF01F00105900D92019792
:10017000E1F7FB01F0CFEFE5EDBFE4E0EEBFC0E655
:10018000D1E00C94C300EFEFE4BBA0E6B1E0A40D16
:10019000B51DAC91A03311F4A89801C0A89AF20142
:1001A000EF59FE4FA081A03311F4A99801C0A99A7C
:1001B000F201EE59FE4FA081A03311F4AA9801C0BC
:1001C000AA9AF201ED59FE4FA081A03311F4AB9829
:1001D00001C0AB9AF201EC59FE4FA081A03311F49B
:1001E000AC9801C0AC9AF201EB59FE4FA081A0334C
:1001F00011F4AD9801C0AD9AF201EA59FE4FA08109
:10020000A03311F4AE9801C0AE9AF201E959FE4F45
:10021000A081A03311F4AF9801C0AF9AA4E6B0E07A
:100220000E941E01E0ECF0E04E165F0624F4F2019D
:1002300038962F0101C001C0A8CFFFCF109639F02A
:100240008AEF90E00197F1F7A8951197C9F7089503
:00000001FF
