:0E0000000C9433000C9400000C9400000C943F
:10000E0000000C9400000C9400000C9400000C9462
:10001E0000000C9400000C9460000C9400000C94F2
:10002E0000000C9400000C9400000C9400000C9442
:10003E0000000C9400000C9400000C9400000C9432
:10004E0000000C9400003F065B4F666D7D077F6FCE
:10005E000A00620254000000F894EE27ECBBF1E0B7
:10006E00FBBFEBBFE5BF8DE0A2E0BB27ED938A950A
:10007E00E9F780E098E0A0E6ED930197E9F7EEE569
:10008E00F0E085919591009761F0A591B59105905D
:10009E001590BF01F00105900D920197E1F7FB015C
:1000AE00F0CFEFE5EDBFE8E0EEBFC0E6D2E00C9496
:1000BE00D2000A921A929A93AA93BA93EA93FA9357
:1000CE00EFB7EA93E8EDEDBDE0EFECBDF301359649
:1000DE003F01F20131962F01E4E6F0E04E165F0685
:1000EE0054F144245524F60131966F01979B02C0BA
:1000FE00979801C0979AECE3F0E0EC15FD0529F412
:10010E00CC24DD24F50131965F01ECE3F0E0EA1535
:10011E00FB0549F4AA24BB24A0E6B2E0ED91FD91C3
:10012E003196FE93EE9357D0589729F4E0E0E09382
:10013E006002E0936102EAE0F0E0E615F70521F4D3
:10014E00939A9098D5014CD0E4E1F0E0E615F705CE
:10015E0021F4909A9198D5014FD0EEE1F0E0E6159A
:10016E00F70521F4919A929836D03AD0E8E2F0E071
:10017E00E615F70531F466247724929A93982BD0DE
:10018E003BD0E991EFBFF991E991B991A99199917C
:10019E00199009901895E0E0EFBDE2E0EEBDE8EDB4
:1001AE00EDBDE0EFECBDE0E0E7BDE6BDEBBDEABDC9
:1001BE00E9BDE8BDE4E0E9BF7894EFEFE4BBE1BB55
:1001CE00E2BBE7E1F0E0E0936002F0936102EBE363
:1001DE00F0E05F01FFCFA0916002B091610208953F
:1001EE00EAE0F0E00E942B014F01A2E6B2E0A80D7A
:1001FE00B91DEC91E5BB0895EAE0F0E00E942601FE
:10020E004F01A2E6B2E0A80DB91DEC91E5BB089531
:10021E00F195E195F04008950024112490E1AA0F84
:10022E00BB1F001C111C0E1A1F0A18F40E0E1F1EE7
:10023E0001C0A1609A9599F7FD01D001089512D0E1
:10024E00EBDF0EF4E5DF0895E894B7FF04C0A09548
:10025E00B09511966894F7FDDBDFDEDFFD010EF43D
:10026E00D7DF0895E894F7FF02C0D2DF6894B7FF96
:10027E0006C0A095B095119600F8039400FA089563
:00000001FF
