:100000000C943D000C9400000C9400000C94000033
:100010000C9400000C9400000C9400000C94000060
:100020000C9400000C9400000C9400000C94000050
:100030000C9400000C9400000C9400000C94000040
:100040000C9400000C9400000C9400000C94000030
:100050000C9400001027E80364000A00010000105F
:10006000000110000100050406020A0809012564C8
:1000700000000800740266000000F894EE27ECBB54
:10008000F1E0FBBFEBBFE5BF8DE0A2E0BB27ED9346
:100090008A95E9F780E098E0A0E6ED930197E9F70B
:1000A000E2E7F0E085919591009761F0A591B59117
:1000B00005901590BF01F00105900D920197E1F7B1
:1000C000FB01F0CFEFE5EDBFE8E0EEBFC0E6D2E028
:1000D0000C946A00E0E0EBB9E8E1EAB9E6E8E0BDDB
:1000E000E0E0E0BDE3E3E9B9E0E0E7B9E3E8E6B981
:1000F000E0E0E0BFEFEFE7BBE4BBA89AE0E6F2E0A8
:10010000FA93EA93A4E1B0E00E943B01A09160025F
:10011000A43561F4A0916102A53441F4A09162027A
:10012000AD3421F4A0916302A03509F02AC0A8984B
:10013000A99AE0E4E7B9E7E0E6B9E0E8E6B9E7B1B3
:10014000E7B9369A349BFECF349AE4B1F5B1F6950F
:10015000E7955F01E0E6F2E0FA93EA93EEE6F0E07D
:10016000FA93EA93F5010E9480030E948D0384E0D4
:100170000E94DE022896A0E6B2E00E942801A89A1A
:10018000A998A0916002A33761F4A0916102A437FD
:1001900041F4A0916202A53621F4A0916302A03738
:1001A00009F049C0A99AA898E0916502F0E0F0979B
:1001B0004F01E2E0F0E0E815F90581F40E942B031D
:1001C00064F40E94300334960E943C0311F44424EA
:1001D0005524F30131963F01F1CF29C0E4E0F0E06E
:1001E000E815F90581F40E942B0364F40E943003A2
:1001F00032960E943C0311F444245524F3013196B5
:100200003F01F1CF14C0E8E0F0E0E815F90589F40A
:100210000E942B0364F40E94300331960E943C0339
:1002200011F444245524F30131963F01F1CF6624A3
:100230007724A998A89A61CFFFCF5F9BFECFECB13E
:100240000895AA935D9BFECFE881ECB921960895AD
:10025000BA93AA931A93A981BA81ED91A983BA831B
:100260001E2FE03019F0A12FECDFF5CFAAE0E9DF77
:10027000188123960895BA93AA930E9492030E813F
:100280001F8128853985002E012AD9F0D6DF5E2FFF
:10029000583051F4AE81BF810A171B0720F421505A
:1002A00030400F5F1F4FF2CF5A3059F03F932F93DA
:1002B0002F5F3F4FE52FAF91BF91EC93015010405E
:1002C000E2CFD901E0E0EC93E885F9850E9499033B
:1002D0002A960895BA93AA931A930A93AA81BB8186
:1002E00012960E948503309759F1AA81BB8114961A
:1002F0000E9485038F01309761F00230E0E01E0715
:1003000098F0F80131978F01AA81BB811496ED9383
:10031000FC93AA81BB811296ED91FD913196FE93DB
:10032000EE933197AC81A083AA81BB810E948503A3
:10033000FF232AF0ED91FD913196FE93EE9306C0D6
:10034000AA81BB81EFEFFFEFED93FC931981088148
:1003500025960895BA93AA9326970E94920310E0D7
:10036000AC85BD85E0E0F0E0ED93FC93EA89FB8984
:100370003196EA8BFB8B3197E4912E2FE03009F414
:1003800015C1E12FE03039F4253211F411E002C03B
:100390000E9442030AC1E130A9F4253219F40E94F7
:1003A000420302C112E040E000E02D3211F401E00E
:1003B000FCC02B3211F44BE2F8C0203211F440E2C1
:1003C000F4C002C0E23039F450E013E0203311F4FD
:1003D0000068EBC003C0E33009F0E7C0203310F041
:1003E0002A3308F007C0AAE05A9F502DE22FE053AD
:1003F0005E0FDBC0E22FE33649F40E944903E8892F
:10040000F989A481AA930E944F03CEC0E33741F437
:100410000E9449030E9455030E9412031E2F0AC026
:10042000E03761F40E9449030E9455030E941E03B5
:100430001E2F086002600F7730E034C0E43611F000
:10044000E93611F4046002C0E53731F4E4E5F0E088
:10045000EE83FF8315E00CC0E83511F4086003C09B
:10046000E83709F0A1C0EEE5F0E0EE83FF8314E089
:1004700002FF14C00E9449030E945F03AB85AA23B8
:100480003AF4EA85FB850E947C03EA87FB874DE20C
:10049000403011F01F5F01C00B7F04C00E94490370
:1004A0000E945F0300FD11C0151778F407FF08C014
:1004B00002FF04C00B7F242F115001C020E301C0B4
:1004C00020E20E9442035150EFCF312F01FF17C0AD
:1004D0003030A1F003FF06C0EE81FF812591EE834D
:1004E000FF8305C0AE81BF812D91AE83BF830E9483
:1004F0004203503009F051503150EACF4BC020E355
:10050000EE81FF810E948903E887F987EE81FF81F0
:100510003296EE83FF83E885F985AA85BB85AE1701
:10052000BF0750F02F5FA885B985EA85FB85EA1BD8
:10053000FB0BEA87FB87EFCF2A3328F003FF02C0CB
:10054000295F01C0295D04FD1AC0213320F4A8856C
:10055000B985119709F409C0531710F000FF01C0C5
:1005600013C020E207FF0BC020E3006102FF07C0B9
:100570000B7F4A930E944F03503009F051500E9464
:100580004203503009F051503150A885B985129777
:1005900008F0B5CF00FF08C0503031F05150E0E214
:1005A000EA930E944F03F8CF10E0E0CEAC85BD8502
:1005B0000E9485030E94990364960895FF92F82E85
:1005C00026970E9494030E946703309719F4EFEF77
:1005D000FFEF23C0DE0116960E9478038D010E9472
:1005E0006703EE83FF83E0E0E887E987DE011A9680
:1005F0000E9478030E948503FA93EA931A930A9360
:10060000EAE6F1E0FA93EA93DE011A96A3DE9F018F
:10061000AE81BF81E0E0EC93F9010E949B032A9632
:10062000FF900895BA93AA93A991B991EE27FF2755
:100630006D91662311F03196FBCF0895BA93AA937A
:10064000AA27BB27E991F9910590002011F0119696
:10065000FBCFFD010895EAE0F0E06E167F060895F5
:10066000A4EFB1E00E946E03A4E7B2E0A40DB51DB3
:10067000EC91E8BBF20108952F01E8E0F0E0E41509
:10068000F50508952A93AD85BE85EF85F88909950E
:100690000895E889F9893497E88BF98B0895AD8539
:1006A000BE85EF85F88909950895A889B9891496BA
:1006B0000E948503EE83FF83AE81BF810895A889E0
:1006C000B98914960E948503EA87FB870895DE01A5
:1006D0001C960E9478030E9485030895109639F0B5
:1006E00080ED97E00197F1F7A8951197C9F7089564
:1006F0000024AF0DB01D0895F195E195F0400895E7
:100700006F2F660F660B762F0895ED91FC91119770
:1007100008950590F491E02D08957A936A93FA93E1
:10072000EA9308955A934A933A932A931A930A9311
:1007300008955D814C813B812A811981088108954A
:00000001FF
