:100000000C9464000C9400000C9400000C9400000C
:100010000C9400000C9400000C9400000C94000060
:100020000C9400000C9400000C9400000C94000050
:100030000C9400000C9400000C9400000C94000040
:100040000C9400000C9400000C9400000C94000030
:100050000C9400001027E80364000A00010000105F
:10006000000110000100000061626364656667685A
:10007000696A6B6C6D6E6F70717273747576777878
:10008000797A2A2A2A4142434445464748494A4BFD
:100090004C4D4E4F505152535455565758595A2063
:1000A00030313233343536373839207E21402324FD
:1000B000255E262A28295F2B3F00020004006600E7
:1000C0005100600168000000F894EE27ECBBF1E0FD
:1000D000FBBFEBBFE5BF8DE0A2E0BB27ED938A95A8
:1000E000E9F780E094E0A0E6ED930197E9F7EAEB09
:1000F000F0E085919591009761F0A591B5910590FB
:100100001590BF01F00105900D920197E1F7FB01F9
:10011000F0CFEFE5EDBFE4E0EEBFC0E6D1E00C9438
:100120009100E2E0EBB9E8E0EAB9E6E8E0BDE0E042
:10013000E0BDECE0E9B9A0E6B1E0A40DB51DEC919D
:10014000E0932802A8E2B2E00E94BB00A4E6B0E07F
:100150000E94CE00E8ECF0E04E165F061CF4F201BF
:1001600031962F01E8CFFFCFAA935D9BFECFE881A8
:10017000ECB921960895BA93AA931A93A981BA81EA
:10018000ED91A983BA831E2FE03019F0A12FECDF87
:10019000F5CFAAE0E9DF188123960895109639F08B
:1001A0008AEF90E00197F1F7A8951197C9F70895A4
:00000001FF
