:060000000C9438000C9482
:1000060000000C9400000C9400000C9400000C946A
:1000160000000C9400000C9400000C9400000C945A
:1000260000000C9400000C9400000C9400000C944A
:1000360000000C9400000C9400000C9400000C943A
:1000460000000C9400000C9400000C940000102793
:10005600E80364000A00010000100001100001001E
:1000660080C00200600166000000F894EE27ECBB39
:10007600F1E0FBBFEBBFE5BF8DE0A2E0BB27ED9350
:100086008A95E9F780E094E0A0E6ED930197E9F719
:10009600E8E6F0E085919591009761F0A591B5911C
:1000A60005901590BF01F00105900D920197E1F7BB
:1000B600FB01F0CFEFE5EDBFE4E0EEBFC0E6D1E037
:1000C6000C946500E2E0EBB9E0E1EAB9E6E8E0BDF0
:1000D600E0E0E0BDECE0E9B9A4E172D0EFEFE4BB0B
:1000E600452C0E9410015E2E4514D9F0E4E1F0E0A3
:1000F6006E167F0624F4F30131963F010DC0662487
:100106007724F40131964F01E4E0F0E0E815F905B3
:1001160019F48824992434D06A92A82D24D0A52DC8
:100126003BD0DECFFFCFAA93E5B3EF70AE2FE881C9
:10013600E07FEA2BE5BB82E08A95F1F7AA9A82E096
:100146008A95F1F7AA9882E08A95F1F764C0AA9396
:10015600A881E9DFE881E295E883A881E4DF81E10F
:100166008A95F1F758C0AA93E881F0E0E05AFE4F6D
:10017600E081A981AE0FEBDFB980A88022960895B1
:10018600A2E00E941401ACE0E2DFA1E00E941401AB
:10019600E0E0AE2EBE2E0895AA93A881AA3011F0F3
:1001A600BD1440F0E0E0EA93A394AA2DDCDFA88119
:1001B600AA3089F1B394A89AA881C9DFA8982BC060
:1001C600AA93E4B3E06FE4BBA29AA09AA19AAA9874
:1001D600A898A998D880E881E058E0936201E88160
:1001E600E054E0936301A4E1B0E00E9421010E9483
:1001F6001A010E941A010E941A01A0E294DF81E20C
:100206008A95F1F7A8E2A3DFA4E0A1DFA5E89FDFC6
:10021600A6E09DDFB5DF219608955F9BFECFECB18A
:1002260008950E94AA00A3E0B0E00C942101A0E387
:100236000E94960081E28A95F1F70895109639F0AA
:100246008AEF90E00197F1F7A8951197C9F70895FD
:00000001FF
