:0E0000000C943B000C9400000C9400000C9437
:10000E0000000C9400000C9400000C9400000C9462
:10001E0000000C9400000C9400000C9400000C9452
:10002E0000000C9400000C9400000C9400000C9442
:10003E0000000C9400000C9400000C9400000C9432
:10004E0000000C940000000001003F065B4F666D3F
:10005E007D077F6F01000200540002000800560069
:10006E000A00600258000000F894EE27ECBBF1E0A5
:10007E00FBBFEBBFE5BF8DE0A2E0BB27ED938A95FA
:10008E00E9F780E098E0A0E6ED930197E9F7E2E664
:10009E00F0E085919591009761F0A591B59105904D
:1000AE001590BF01F00105900D920197E1F7FB014C
:1000BE00F0CFEFE5EDBFE8E0EEBFC0E6D2E00C9486
:1000CE00F400BA93AA93A881B981EAE0F0E00E9405
:1000DE00BA012F01A881B981EAE0F0E00E94BF01C8
:1000EE003F01E881F981E0936C02F0936D02A2E387
:1000FE00B0E00E9499019498959AA0E6B2E0A40D02
:10010E00B51DEC91E8BBA2E3B0E00E949901949A70
:10011E009598A0E6B2E0A60DB71DEC91E8BB1AC00B
:10012E00BA93AA93E0E0E0936A02E0936B02E8814F
:10013E00F981A0916A02B0916B02EA17FB0754F0A5
:10014E00D401BFDFAAE6B2E0ED91FD913196FE93A8
:10015E00EE93EDCF22960895969AAEE1B0E0E0DFF1
:10016E009698979AAEE1B0E0DBDF9798C79808951E
:10017E0020FE32C0E1E0F0E06F01E5E1F0E0CE16E6
:10018E00DF0654F5BBD00E94DB01E130A0E0FA0798
:10019E00F9F4C79A5601A814B90434F4A5E0B0E0F6
:1001AE00BFDFF40131974F018A149B0434F4A5E0AC
:1001BE00B0E0B6DFF40131964F018A149B0441F48E
:1001CE00E89420F8C9DF9AD0E0E0F0E0ED93FC93DC
:1001DE00F60131966F01D1CF0895EFEFE7BB8C9A00
:1001EE008D9A8E9A8F9AC4DFD4016BDFC89903C0A3
:1001FE00E0E7F2E08BD0C99903C0E2E7F2E086D0E7
:10020E00CA9903C0E4E7F2E081D0CB9905C06894A7
:10021E0020F8E6E7F2E081D0CC9905C0689420F88A
:10022E00E8E7F2E07AD0CD9905C0689420F8EAE7C5
:10023E00F2E073D0CE9905C0689420F8ECE7F2E0B6
:10024E006CD0CF9905C0689420F8EEE7F2E065D047
:10025E00989905C0689420F8E0E8F2E05ED099998C
:10026E0005C0689420F8E2E8F2E057D09A9905C0EC
:10027E00689420F8E4E8F2E050D09B9905C06894A9
:10028E0020F8E6E8F2E049D09C9905C0689420F881
:10029E00E8E8F2E042D09D9905C0689420F8EAE8BB
:1002AE00F2E03BD09E9905C0689420F8ECE8F2E0AD
:1002BE0034D09F9905C0689420F8EEE8F2E02DD076
:1002CE00809905C0689420F8E0E9F2E026D0819983
:1002DE0005C0689420F8E2E9F2E01FD0829905C0CB
:1002EE00689420F8E4E9F2E018D0839905C0689488
:1002FE0020F8E6E9F2E011D076CFFFCFF601AEE6B8
:10030E00B2E0EE0FFF1FAE0FBF1F0895A1E0B0E0E9
:10031E00A083B183689420F80895A1E0B0E0A08393
:10032E00B1830895109639F080ED97E00197F1F7BB
:10033E00A8951197C9F70895F195E195F0400895A4
:10034E000024112490E1AA0FBB1F001C111C0E1AD1
:10035E001F0A18F40E0E1F1E01C0A1609A9599F780
:10036E00FD01D001089512D0EBDF0EF4E5DF089504
:10037E00E894B7FF04C0A095B09511966894F7FD68
:10038E00DBDFDEDFFD010EF4D7DF0895E894F7FF23
:10039E0002C0D2DF6894B7FF06C0A095B095119643
:1003AE0000F8039400FA0895ED91FC9111970895C9
:00000001FF
